:100000000EC01BC01AC019C018C017C016C015C03A
:10001000CDC013C0B0FA4B467FFF0510DB001124A2
:100020001FBECFE9CDBF20E0A0E6B0E001C01D9229
:10003000A436B207E1F7BBD095C1E2CFC09A28E160
:1000400042E0E0E1FEE03197F1F738B3342738BB06
:100050002150B9F7C198EFEBF2E13197F1F700C009
:100060000000C19AEFEBF2E13197F1F700C0000018
:10007000C198EFEAF4E03197F1F700C00000C19AAF
:10008000382FFC0128E0808180FF21C08FE599E0B6
:100090000197F1F700C00000C1988FEA94E0019742
:1000A000F1F700C00000808190E0959587958083EE
:1000B000C19A215041F731968E2F831B861710F37A
:1000C000E0E1FEE03197F1F7C198C09808958FEA1A
:1000D00094E00197F1F700C00000C1988FE599E026
:1000E0000197F1F7DECF30E020E080E041E050E022
:1000F000BA9A93E09A95F1F70000BA989DE09A9524
:10010000F1F7B29B07C0BA01022E01C0660F0A9434
:10011000EAF7862B90E69A95F1F72F5F3F4F28304C
:10012000310531F7089530E020E090E0AC01022E77
:1001300002C0559547950A94E2F7BA9A40FF0DC060
:1001400048E04A95F1F7BA9840E64A95F1F72F5FF3
:100150003F4F2830310551F7089540E64A95F1F7B1
:10016000BA9848E04A95F1F7F2CFBA9A8FE692E052
:100170000197F1F700C00000BA9893E09A95F1F763
:10018000000080E5B29909C089ECB2990DC0815098
:1001900059F000C000C00000F8CF00C000C000004F
:1001A000815081F781E0089580E008951895CF93FC
:1001B000DF93CDB7DD27CA50CDBFF894C298BA9867
:1001C000C098B89AC198B99A81E085BD87B3877EF7
:1001D00087BB88B3886188BB86B390E033E0959590
:1001E00087953A95E1F78370992728E330E002C0BC
:1001F000220F331F8A95E2F7309363002093620049
:10020000309361002093600088B3877E88BBADDFA8
:10021000811104C08CEC87DF84E485DF2FEF88EF49
:1002200095E1215080409040E1F700C0000083E359
:1002300089839BDF811114C083E375DF8E010E5F1C
:100240001F4F7E01EAE0EE0EF11C4DDFF8018193B5
:100250008F01EE15FF05C9F769E0CE010196EEDECC
:1002600084B7877F84BF81B5886181BD81E681BD08
:10027000789483E3D82E8E01055F1F4F93E0E92E1B
:1002800022E0F22E8091620090916300019690939B
:100290006300809362002091600030916100281714
:1002A000390708F052C0D98260DF882309F43EC0C4
:1002B000E4E1F0E0DE01129684918D9331960A1705
:1002C0001B07D1F78FE59AEE0197F1F700C0000008
:1002D0006AE0CE010196B2DEEFE5FAEE3197F1F772
:1002E00000C000006AE0CE010196A8DE8FE59AEE1C
:1002F0000197F1F700C000006AE0CE0101969EDE92
:1003000020916200309163008091600090916100C3
:100310008217930720F4109263001092620085B751
:10032000806385BFE0BEF0BE8895ACCF8CECFBDE71
:100330008EEBF9DECE0102965C01D5DEF5018193EC
:100340005F01E017F107C9F7BDCF215031098217CE
:10035000930729F70ADF8111D3CF8CECE4DE84E424
:08036000E2DECECFF894FFCFDE
:00000001FF
