:1000000009C016C015C014C013C012C011C010C062
:10001000B7C00EC011241FBECFE9CDBF20E0A0E6BF
:10002000B0E001C01D92A236B207E1F7AAD06BC1C1
:10003000E7CFC09A28E142E0E4E8F3E03197F1F736
:1000400038B3342738BB2150B9F7C198EFEAF4E050
:100050003197F1F700C00000C19A582FFC0142E02F
:1000600030E020E0808190E0022E02C095958795D7
:100070000A94E2F780FF1CC087E592E00197F1F750
:1000800000C0000098B3942798BB2F5F3F4F2830E3
:10009000310541F731968E2F851B861708F3E4E86A
:1000A000F3E03197F1F788B3842788BBC0980895AF
:1000B0008BE291E00197F1F7E3CF30E020E080E0C0
:1000C00041E050E0BA9A93E09A95F1F70000BA98AF
:1000D0009DE09A95F1F7B29B07C0BA01022E01C0CC
:1000E000660F0A94EAF7862B90E69A95F1F72F5F50
:1000F0003F4F2830310531F7089530E020E090E09F
:10010000AC01022E02C0559547950A94E2F7BA9ABF
:1001100040FF0DC048E04A95F1F7BA9840E64A958D
:10012000F1F72F5F3F4F2830310551F7089540E632
:100130004A95F1F7BA9848E04A95F1F7F2CFBA9AA2
:100140008FE692E00197F1F700C00000BA9893E0C3
:100150009A95F1F7000080E5B29909C089ECB2994F
:100160000DC0815059F000C000C00000F8CF00C0A1
:1001700000C00000815081F781E0089580E008957B
:100180001895CF93DF93CDB7DD27C950CDBFF89435
:10019000C298BA98C098B89AC198B99A81E085BDBA
:1001A00087B3877E87BB88B3886188BB86B390E0BE
:1001B00023E0959587952A95E1F78370992720E4A8
:1001C00030E002C0220F331F8A95E2F730936100BE
:1001D000209360002FEF48EF55E121504040504000
:1001E000E1F700C00000ABDF811114C083E385DFBD
:1001F0008E010F5F1F4F6E0189E0C80ED11C780180
:100200005CDFF80181938F01EC15FD05C9F768E00B
:10021000C7010FDF94DF811104C08CEC6EDF84E432
:100220006CDF84B7877F84BF81B5886181BD81E63B
:1002300081BD789453E0F52E62E0E62E70E4C72E7F
:10024000D12C5E01FAE0AF0EB11CE0EB9E2EFAEF6E
:100250008F2EABE47A2EB6E46B2E1FE7512E44248A
:100260004A9405E0302E80E1282E85B7806385BF53
:10027000F0BEE0BE889520916000309161002F5F54
:100280003F4F309361002093600086B390E043E0DD
:10029000959587954A95E1F783709927A60102C045
:1002A000440F551F8A95E2F724173507F0F2109294
:1002B00061001092600043DF8823B1F099828A8246
:1002C0007B826C825D824E823F8228868BED89879D
:1002D00069E0CE010196ADDE32DF8111C6CF8CEC34
:1002E0000CDF84E40ADFC1CF8CEC07DF8EEB05DF87
:1002F0008E010F5F1F4FE1DEF80181938F01EA1538
:0A030000FB05C9F7E5CFF894FFCF25
:00000001FF
