:1000000014C021C020C01FC01EC01DC01CC01BC00A
:10001000CBC019C0B0FA4B467FFF0510DB070025A7
:10002000004B00E100AABBEECC0011241FBECFE9BB
:10003000CDBF20E0A0E6B0E001C01D92A536B2071A
:10004000E1F7B3D092C1DCCFC09A20E142E0E7E112
:10005000F5E13197F1F700C0000038B3342738BB21
:100060002150A9F7C198E0E2FCE13197F1F7C19A7C
:10007000E0E2FCE13197F1F7C198E0E1FEE0319771
:10008000F1F7C19A382FFC0128E0808180FF1FC062
:1000900088E097E00197F1F7C19880E19EE0019731
:1000A000F1F7808190E0959587958083C19A2150E2
:1000B00061F731968E2F831B861730F3E7E1F5E168
:1000C0003197F1F700C00000C198C098089580E111
:1000D0009EE00197F1F7C19888E097E00197F1F76A
:1000E000E0CF30E020E080E041E050E0BA9A93E0D9
:1000F0009A95F1F70000BA989DE09A95F1F7B29BB6
:1001000007C0BA01022E01C0660F0A94EAF7862BD7
:1001100090E69A95F1F72F5F3F4F2830310531F780
:10012000089530E020E090E0AC01022E02C0559529
:1001300047950A94E2F7BA9A40FF0DC048E04A9505
:10014000F1F7BA9840E64A95F1F72F5F3F4F283014
:10015000310551F7089540E64A95F1F7BA9848E01D
:100160004A95F1F7F2CFBA9A8FE692E00197F1F74C
:1001700000C00000BA9893E09A95F1F7000080E57E
:10018000B29909C089ECB2990DC0815059F000C0F4
:1001900000C00000F8CF00C000C00000815081F70F
:1001A00081E0089580E008951895CF93DF93CDB74F
:1001B000DD27CA50CDBFF894C298BA98C098B89AB3
:1001C000C198B99A87B3877E87BB88B3886188BB9B
:1001D00087E886B983E087B98FE496E40197F1F761
:1001E00000C00000369A3699FECFE5B1F0E0EB5D35
:1001F000FF4FE491E093640082E087B9EFE4F6E416
:100200003197F1F700C00000369A3699FECFE5B17C
:10021000F0E0EE0FFF1FE35EFF4F85919491909306
:10022000630080936200909361008093600088B3C4
:10023000877E88BB81E085BD96DF811104C08CEC90
:1002400070DF84E46EDFFFEF25EA8EE0F15020409E
:100250008040E1F700C0000080916400898383DF63
:10026000811114C083E35DDF8E010E5F1F4F7E019D
:100270009AE0E90EF11C35DFF80181938F01EE154C
:10028000FF05C9F769E0CE010196DEDEFFEF22E54A
:1002900087E0F15020408040E1F700C0000084B7C3
:1002A000877F84BF81B5886181BD81E681BD7894F7
:1002B0008E01055F1F4F83E0C82E92E0D92E8091FA
:1002C00062009091630001969093630080936200B6
:1002D000209160003091610082179307C8F18091EE
:1002E0006400898340DF882321F1E4E1F0E0DE014E
:1002F000129684918D933196A017B107D1F76AE0D9
:10030000CE010196A1DE20916200309163008091C0
:100310006000909161008217930720F410926300AF
:100320001092620085B7806385BFC0BED0BE88953D
:10033000C6CF8CECF6DE8EEBF4DEFE0132967F014A
:10034000D0DEF70181937F01E017F107C9F7D7CF1E
:100350002150310982179307B1F605DF8111D3CF00
:0E0360008CECDFDE84E4DDDECECFF894FFCF40
:00000001FF
