:1000000009C016C015C014C013C012C011C010C062
:10001000B7C00EC011241FBECFE9CDBF20E0A0E6BF
:10002000B0E001C01D92A436B207E1F7AAD072C1B8
:10003000E7CFC09A20E342E0E4E8F3E03197F1F73C
:1000400038B3342738BB2150B9F7C198EFEAF4E050
:100050003197F1F700C00000C19A582FFC0142E02F
:1000600030E020E0808190E0022E02C095958795D7
:100070000A94E2F780FF1CC087E592E00197F1F750
:1000800000C0000098B3942798BB2F5F3F4F2830E3
:10009000310541F731968E2F851B861708F3E4E86A
:1000A000F3E03197F1F788B3842788BBC0980895AF
:1000B0008BE291E00197F1F7E3CF30E020E080E0C0
:1000C00041E050E0BA9A93E09A95F1F70000BA98AF
:1000D0009DE09A95F1F7B29B07C0BA01022E01C0CC
:1000E000660F0A94EAF7862B90E69A95F1F72F5F50
:1000F0003F4F2830310531F7089530E020E090E09F
:10010000AC01022E02C0559547950A94E2F7BA9ABF
:1001100040FF0DC048E04A95F1F7BA9840E64A958D
:10012000F1F72F5F3F4F2830310551F7089540E632
:100130004A95F1F7BA9848E04A95F1F7F2CFBA9AA2
:100140008FE692E00197F1F700C00000BA9893E0C3
:100150009A95F1F7000080E5B29909C089ECB2994F
:100160000DC0815059F000C000C00000F8CF00C0A1
:1001700000C00000815081F781E0089580E008957B
:100180001895CF93DF93CDB7DD27C950CDBFF89435
:10019000C298BA98C098B89AC198B99A81E085BDBA
:1001A00087B3877E87BB88B3886188BB86B390E0BE
:1001B000A3E095958795AA95E1F78370992728E3A1
:1001C00030E002C0220F331F8A95E2F730936300BC
:1001D0002093620030936100209360002FEF88EF3E
:1001E00095E1215080409040E1F700C00000A7DF7A
:1001F000811114C083E381DF8E010F5F1F4F6E01F9
:10020000E9E0CE0ED11C780158DFF80181938F010F
:10021000EC15FD05C9F768E0C7010BDF90DF811120
:1002200004C08CEC6ADF84E468DF84B7877F84BF16
:1002300081B5886181BD81E681BD789453E0F52E5A
:100240006E01FAE0CF0ED11C60EBE62E7AEFB72EEE
:10025000EBE4AE2EF6E49F2E82E0882E9FE7792E07
:1002600066246A9425E0522E30E1432E4BED342E65
:1002700085B7806385BFF0BE80BE8895809162009F
:1002800090916300019690936300809362002091A7
:100290006000309161008217930778F150DF882366
:1002A000E9F0E982BA82AB829C827D826E825F82B3
:1002B0004886398669E0CE010196BBDE2091620056
:1002C00030916300809160009091610082179307E4
:1002D00078F61092630010926200BECF8CEC0DDFB6
:1002E0008EEB0BDF8E010F5F1F4FE7DEF80181936E
:1002F0008F01CE16DF06C9F7DDCF215031098217F5
:100300009307E1F61CDF8111D9CF8CECF6DE84E493
:08031000F4DED4CFF894FFCF16
:00000001FF
