:1000000009C016C015C014C013C012C011C010C062
:100010000FC00EC011241FBECFE9CDBF20E0A0E667
:10002000B0E001C01D92A437B207E1F752D0CDC1B4
:10003000E7CF30E020E080E041E050E028303105BB
:10004000F9F008B601FE02C080E008950AB606FE87
:10005000F5CF12BE9AB790649ABFB19904C008B6A2
:1000600001FEFBCFF1CF92B7953038F4BA01022EE2
:1000700001C0660F0A94EAF7862B2F5F3F4FDECF51
:10008000089530E020E0482F50E028303105E9F0B5
:1000900008B601FC1CC00AB606FEF7CF12BECA01A4
:1000A000022E02C0959587950A94E2F780FF0BC057
:1000B000B99882B78530E8F3B9989AB790649ABF37
:1000C0002F5F3F4FE2CFB99AF4CF80E0089581E0EF
:1000D0000895CF93DF93CDB7DD27C950CDBFF894F6
:1000E000C198B998C298BA9AC09AB89881E085BD6B
:1000F0001FBC83E083BF19BEA89A85B7826085BF05
:1001000080ED80936B0087E080936C008BE480939C
:100110006D0086E480936E009FE790936F009FEFE1
:100120009093700095E09093710090E1909372002D
:1001300080937300E3E6F0E080E0E199FECF8EBBB0
:10014000E09A9DB391938F5F8830B9F784B7877F2A
:1001500084BF81B5886181BD81E681BD34E7C32E4E
:1001600030E0D32E772473944BE6A42E40E0B42ED7
:1001700059E0652E8E010F5F1F4F88248394912CC8
:1001800070ED572EE7E04E2EFBE43F2E8AB78076C7
:100190008034E9F0803619F0803209F0E6C0F801C9
:1001A000262D11922A95E9F7C29A12BE88B782606D
:1001B00088BF8AB780628ABF90E080E020E00AB6FC
:1001C00005FC73C008B601FEFACFC298DFCF12BE9D
:1001D00088B7826088BF8AB780648ABFB19904C03B
:1001E00008B601FEFBCFD2CF82B78C3378F212BEB5
:1001F00026E02A95F1F700C0B99A8FE191E00197C6
:10020000F1F700C000008AB780648ABFB99896E011
:100210009A95F1F700C012BE88B7826088BF8091BE
:100220006000811129C005DF853591F08C3C11F10A
:10023000833311F523E6E22E20E0F22EF7018191BF
:100240007F011FDF8111A2CFAE14BF04B9F79ECF8B
:1002500093E6E92E90E0F92EECDEF70191917F0113
:10026000891394CFFBE6EF16F0E0FF06A9F7709232
:1002700060008CCF7092600080916000882309F448
:1002800085CF10926000D5DE8E3B09F07FCF8BE6E4
:10029000E82E80E0F82EF70181917F01F2DE8111D6
:1002A00075CFCE14DF04B9F771CF32B712BE4AB79B
:1002B00040624ABF213029F021E0353808F07FCF75
:1002C0007DCF353608F43CC0F80180E02E2F201B8E
:1002D000291750F42191822728E03CE8869508F4FC
:1002E00083272A95D9F7F2CF811125C030E020E08D
:1002F000422F291700F5983029F0993099F02F5F97
:100300003F4FF6CFF801E20FF31F8081F901ED595D
:10031000FF4F8083E199FECFE59A4EBB8DBBE29AF9
:10032000E19AEDCFF801E20FF31F8081F901E55961
:10033000FF4F8083E4CF109262001092610045CF9E
:10034000393360F0F801E90FF11D3081A401082E66
:1003500001C0440F0A94EAF7342B30838F5F883052
:1003600008F42DCF9F5F80E02ACF01B407FE0ECFA7
:1003700081B5806881BD8091610090916200019695
:100380008930E2E09E0728F4909362008093610038
:10039000FDCE109262001092610050926B0040926C
:1003A0006C0030926D0086E480936E009FE790931E
:1003B0006F009FEF9093700095E09093710090E133
:0E03C0009093720080937300E1CEF894FFCF0B
:00000001FF
