:1000000009C0B8C1B7C1B6C1B5C1B4C1B3C1B2C1ED
:10001000B1C1B0C111241FBECFE9CDBF20E0A0E621
:10002000B0E001C01D92A537B207E1F701D0E6C1EB
:10003000CF93DF93CDB7DD27CA50CDBFF894C198D9
:10004000B998C298BA9AC098B8981FBC83E083BF89
:1000500019BEA89A85B7826085BF80ED80936C0039
:1000600087E080936D008BE480936E0086E480933C
:100070006F009FE7909370009FEF9093710095E061
:100080009093720090E19093730080937400E4E683
:10009000F0E080E0E199FECF8EBBE09A9DB39193B2
:1000A0008F5F8830B9F784B7877F84BF81B5886157
:1000B00081BD81E681BDB5E7AB2EB0E0BB2E1CE66D
:1000C000C12E10E0D12E44244A9466246A9400ED97
:1000D000702E87E0882E9BE4592E26E4922E0AB6D5
:1000E00006FE0CC012BE88B7826088BF8AB78064E3
:1000F0008ABFB1994DC008B601FEFBCF0AB605FE16
:100100001BC08AB780628ABF08B601FEBEC088B72E
:10011000826088BF6092630012BE80916200880F87
:10012000809362009091630021EA290F253208F044
:10013000B0C081608093620001B407FED0CF81B56A
:10014000806881BD809160009091610001969093DC
:10015000610080936000833C914008F2109261003E
:100160001092600070926C0080926D0050926E0050
:1001700090926F008FE7809370004092710085E04D
:100180008093720080E18093730090927400A7CFF7
:1001900082B7803408F4B2CF12BE26E02A95F1F778
:1001A00000C0B99A8FE191E00197F1F700C000001B
:1001B0008AB780648ABFB99896E09A95F1F700C033
:1001C00012BE88B7826088BF88E0D5D0853589F0B7
:1001D000803F69F18333C9F404E610E068E0F80178
:1001E00081918F01EAD0811189CFC016D106B1F774
:1001F00085CF04E610E088E0BED0F80191918F0130
:1002000089137CCFCE16DF06B1F788E0B4D08E3BE1
:1002100009F074CF0CE610E068E0F80181918F01DD
:10022000CCD081116BCFA016B106B1F767CFF12CFE
:10023000E12CF701A3E0F595E795AA95E1F7EC59D4
:10024000FF4F008110E08E2D877002C01595079535
:100250008A95E2F761E0802F8170AFD0C801809568
:10026000909561E08170A9D081E085D0017091E026
:10027000811101C090E0091341CFFFEFEF1AFF0A8F
:1002800020E4E216F104A9F639CF82B78093630027
:1002900043CF9458963208F04FCF8E3F09F04CCFA1
:1002A000C29ADE011196FD014A2F6AE06A0F2E2FD5
:1002B0002A1B108250E00AB605FC05C008B601FEF4
:1002C000FACFC29839CF82B78093630012BE8AB743
:1002D00080628ABFB09910C030916300383160F0FD
:1002E000808190E09595879580835F5F78EC730FB0
:1002F000773240F4806880835830E9F631966E1783
:1003000001F3D5CF3F35C0F3FD0180E09E2F941B54
:10031000921750F49191892798E03CE8869508F46B
:1003200083279A95D9F7F2CF81111FC090E080E022
:10033000482F8217D0F4283029F0293081F0019617
:100340001196F6CF3C91FC01EC59FF4F3083E199B7
:10035000FECFE59A4EBB3DBBE29AE19AF0CF3C91CD
:10036000FC01E459FF4F3083EACF109261001092F4
:100370006000A7CF45CE40E090E0841721F008B69A
:1003800001FE03C090E0892F08950AB606FEF5CF5E
:1003900012BE2AB720642ABFB19904C008B601FE74
:1003A000FBCFF0CF292F30E035952795922F52B70C
:1003B000553008F490684F5FE0CF90E09617D1F089
:1003C00008B601FC19C00AB606FEF8CF12BE282FE7
:1003D00030E080FF0DC0B99882B78530E8F3B99856
:1003E0008AB780648ABF35952795822F9F5FE6CFB5
:1003F000B99AF2CF80E0089581E00895F894FFCF94
:00000001FF
