:100000000EC099C198C197C196C195C194C193C1C1
:1000100092C191C1D0074B467FFF051046001124C5
:100020001FBECFE9CDBF20E0A0E6B0E001C01D9229
:10003000A837B207E1F701D0DCC1F894C198B998AC
:10004000C298BA9AC098B898C39ABB981FBC84E06B
:1000500083BF19BEA89A85B7826085BFB39B04C0D1
:100060008FE06AD180936E0080916E00811101C093
:10007000C29AB3D184B7877F84BF81B5886181BDBF
:1000800081E681BD08E710E0AA24AA94DD24DA9471
:1000900073E0C72EE4E0BE2E0AB606FE12C0C3BE51
:1000A00012BE88B7826088BF8AB780648ABFB19960
:1000B0003FC008B601FEFBCFB3BE12BE88B7826058
:1000C00088BF0AB605FE1BC008B601FEA2C088B7ED
:1000D000826088BFA0926D0012BE8AB780628ABF1C
:1000E000B0990DC090916D009D3848F080916C00E2
:1000F000880F953C08F091C0816080936C0001B43A
:1001000007FECACF81B5806881BD80916A00909159
:100110006B00019690936B0080936A00823E91057C
:1001200008F4B6CF10926B0010926A0056D1B0CF8F
:1001300082B7803408F286E08A95F1F700C0B99A58
:100140008FE191E00197F1F700C000008AB7806469
:100150008ABFB99896E09A95F1F700C012BE88B7A9
:10016000826088BF88E0F6D08535C1F170F4C0E0C8
:10017000833309F0A1CF8C2FDFD068E00DD181113E
:100180009BCFCF5FC830B9F797CF8C3C91F1D0E0CF
:10019000803F09F091CF8D2FCFD0C82F68E0962EE9
:1001A0008C2F8170882E61E0F7D0EC2EF12C8C2FF3
:1001B000809561E08170F0D081E0CCD091E0811138
:1001C00001C090E0981178CFF594E794CE2D9A94E1
:1001D0009110E6CFDF5FD830F1F66ECFC0E088E057
:1001E000B9D0F82E8C2FA8D0F81266CFCF5FC830C8
:1001F000B1F788E0AFD08E3B09F05ECFCFE6D0E01C
:1002000068E08991C9D0811157CF0C171D07C1F73C
:1002100053CF82B780936D005FCF8E3F09F06DCFD3
:1002200010926C00D0E0C0E0EC2FF0E0E05AFF4FFD
:10023000108230E00AB605FC03C008B601FEFACF12
:1002400008B601FE33C088B7826088BFD0926D00C7
:1002500012BE8AB780628ABFB0990EC020916D002D
:100260002E3150F03F5F808190E095958795808397
:10027000253500F5806880833830E1F6D11159C00A
:100280008091600090916E00891709F450C091111F
:100290000BC080936E00D2E0C29ACA3029F68091DA
:1002A0006E00882309F42BCFC29829CF82B78093A0
:1002B0006D00CECF2D3800F3E0E6F0E020E080E0E6
:1002C0002C1759F09191892798E03CE8869508F41D
:1002D00083279A95D9F72F5FF3CF81111CC0F12C9A
:1002E000E12CEC16C0F4C83031F0C93059F09FEF62
:1002F000E91AF90AF6CFF701E05AFF4F60818E2D17
:1003000021D0F5CFF701E05AFF4F8081F701E15985
:10031000FF4F8083ECCF10926B0010926A00D230B6
:1003200009F0BDCF60916E008FE00CD0B8CFD1E066
:10033000B3CFCF5FB2CF64CEE199FECF8EBBE09A50
:100340008DB30895E199FECFE59A8EBB6DBBE29A1D
:10035000E19A089540E090E0841721F008B601FE8C
:1003600003C090E0892F08950AB606FEF5CF12BEAD
:100370002AB720642ABFB19904C008B601FEFBCF9A
:10038000F0CF292F30E035952795922F52B7553071
:1003900008F490684F5FE0CF90E09617D1F008B670
:1003A00001FC19C00AB606FEF8CF12BE282F30E0B5
:1003B00080FF0DC0B99882B78530E8F3B9988AB745
:1003C00080648ABF35952795822F9F5FE6CFB99AC3
:1003D000F2CF80E0089581E00895E4E1F0E0AFE637
:1003E000B0E084918D93319680E0A837B807C9F7C3
:0603F0000895F894FFCF10
:00000001FF
