:1000000009C088C187C186C185C184C183C182C13D
:1000100081C180C111241FBECFE9CDBF20E0A0E681
:10002000B0E001C01D92A337B207E1F701D0C3C110
:10003000CF93DF93CDB7DD27C950CDBFF894C198DA
:10004000B998C298BA9AC098B89881E085BD1FBC8B
:1000500083E083BF19BEA89A85B7826085BF80ED13
:1000600080936A0087E080936B008BE480936C0040
:1000700086E480936D009FE790936E009FEF9093CE
:100080006F0095E09093700090E1909371008093E1
:100090007200E2E6F0E080E0E199FECF8EBBE09AEC
:1000A0009DB391938F5F8830B9F784B7877F84BF02
:1000B00081B5886181BD81E681BD3AE6C32E30E01D
:1000C000D32E43E7A42E40E0B42E50ED652E67E01A
:1000D000762E7BE4572E8E010F5F1F4F882483946A
:1000E000912C8AB780768034E1F08036D1F080326E
:1000F00009F0E0C089E0F80111928A95E9F712BE93
:1001000088B7826088BF8AB780628ABF90E080E04B
:1001100030E00AB605FC62C008B601FEFACFC2980C
:10012000E0CF12BE88B7826088BF8AB780648ABF7A
:10013000B19904C008B601FEFBCFD3CF82B780349B
:1001400080F212BE26E02A95F1F700C0B99A8FE13D
:1001500091E00197F1F700C000008AB780648ABF80
:10016000B99896E09A95F1F700C012BE88B7826000
:1001700088BFD1D08333A1F0853501F1CCD08E3B3F
:1001800009F0AFCF8AE6E82E80E0F82EF7018191E2
:100190007F01E9D08111A5CFAE14BF04B9F7A1CF7B
:1001A00022E6E22E20E0F22EF70181917F01DBD0E2
:1001B000811197CFCE14DF04B9F793CF92E6E92EE1
:1001C00090E0F92EA8D0F70191917F01891389CF92
:1001D000FAE6EF16F0E0FF06A9F7D0CF22B712BE7D
:1001E0004AB740624ABF313059F03BE7320F3532EF
:1001F00018F4C29A31E08DCF243608F089CF8FCF22
:1002000047EC420F463298F4F801E90FF11D2081C6
:10021000A401082E01C0440F0A94EAF7242B20837E
:100220008F5F883008F475CF9F5F80E072CF2536EE
:1002300008F43CC0F80180E02E2F201B291750F451
:100240002191822728E03CE8869508F483272A95A7
:10025000D9F7F2CF811125C030E020E0422F2917D5
:1002600000F5983029F0993099F02F5F3F4FF6CF85
:10027000F801E20FF31F8081F901EE59FF4F8083EF
:10028000E199FECFE59A4EBB8DBBE29AE19AEDCFA4
:10029000F801E20FF31F8081F901E659FF4F8083D7
:1002A000E4CF109261001092600039CF243108F041
:1002B000B7CF35CF01B407FE14CF81B5806881BDBB
:1002C000809160009091610001968930F2E09F0773
:1002D00028F4909361008093600003CF1092610036
:1002E0001092600060926A0070926B0050926C00F5
:1002F00086E480936D009FE790936E009FEF90934C
:100300006F0095E09093700090E19093710080935E
:100310007200E7CE75CE30E020E080E041E050E0B2
:1003200028303105F9F008B601FE02C080E00895DA
:100330000AB606FEF5CF12BE9AB790649ABFB1997D
:1003400004C008B601FEFBCFF1CF92B7953038F468
:10035000BA01022E01C0660F0A94EAF7862B2F5FBE
:100360003F4FDECF089530E020E0482F50E02830A6
:100370003105E9F008B601FC1CC00AB606FEF7CF4D
:1003800012BECA01022E02C0959587950A94E2F723
:1003900080FF0BC0B99882B78530E8F3B9989AB757
:1003A00090649ABF2F5F3F4FE2CFB99AF4CF80E0BD
:0A03B000089581E00895F894FFCF4E
:00000001FF
