:100000000EC0A1C1A0C19FC19EC19DC19CC19BC189
:100010009AC199C1D0074B467FFF051046001124B5
:100020001FBECFE9CDBF20E0A0E6B0E001C01D9229
:10003000A837B207E1F701D0E0C1F89488E088BBA7
:1000400084E087BB1FBC83BF19BEA89A85B78260B6
:1000500085BFB39B04C08FE077D180936E00809101
:100060006E00811101C0C29A7DD184B7877F84BFA1
:1000700081B5886181BD81E681BDB19902C081E011
:1000800086BF73E0D72EE4E0CE2EF2E0FF2EBB2435
:10009000B394A0E2EA2EAA24AA9499249A940AB6C8
:1000A00006FC1BC086B7811118C00AB605FC99C0B2
:1000B00001B407FEF4CF81B5806881BD80916A00EC
:1000C00090916B000196843A22E0920708F035C1C6
:1000D00090936B0080936A00E2CFD3BE48E060E06B
:1000E00080E04CD18E3B09F46AC0F0F4833309F40C
:1000F0004BC0853509F455C089B5882309F46CC017
:10010000B6BE19BC90E39A95F1F7B99A8FE191E0E8
:100110000197F1F700C00000B99896E09A95F1F7C1
:1001200000C080E48ABFBBCF8C3CC1F200E0803FBE
:1001300019F7802F09D1182F68E0862E212F217002
:10014000722E41E0622F81E019D18111D5CFC12FEC
:10015000D0E0612F6095617041E081E00FD18111A5
:10016000CBCF41E060E00AD191E0811101C090E085
:100170009711C2CFD595C7951C2F8A948110DECFD9
:100180000F5F0830B1F6B8CFC0E08C2FDDD048E06B
:10019000682F81E0F3D08111AFCFCF5FC830A9F7CE
:1001A000ABCFC0E048E060E080E0E8D0D82F8C2FF3
:1001B000CBD0D813A1CFCF5FC830A1F78FCFCFE678
:1001C000D0E0699148E081E0D9D0811195CF80E0FD
:1001D000C837D807B1F782CF16BEC3BE12BEF8BE6D
:1001E0005ECF08B601FE41C0F8BEA0926D0012BEFF
:1001F000EABEB0995DCF90916D009E3108F458CF62
:1002000080916C00880F80936C00953C08F48EC040
:100210008E3F09F084C0D0E0C0E0EC2FF0E0E05A5F
:10022000FF4F108230E0383008F064C00AB606FC98
:1002300072C00AB605FEF7CF08B601FE1AC0F8BEB6
:1002400090926D0012BEEABEB099EDCF20916D0084
:100250002E3148F33F5F808190E0959587958083AC
:10026000253558F480688083DECF82B780936D0097
:10027000BECF82B780936D00E5CF2D38A0F2E0E6C7
:10028000F0E020E080E02C1759F09191892798E068
:100290003CE8869508F483279A95D9F72F5FF3CF2A
:1002A00081111BC010E000E00C17B8F4C83029F031
:1002B000C93051F00F5F1F4FF7CFF801E05AFF4FE1
:1002C0006081802F47D0F6CFF801E05AFF4F808140
:1002D000F801E159FF4F8083EDCF60916E00DD237F
:1002E000D1F010926B0010926A00D230A1F48FE02E
:1002F00031D011C0D11118C08091600090916E0072
:10030000891781F091110AC080936E00D2E0C29AE1
:10031000CA3009F082CF80916E008111C29810928C
:100320006C00C6CED1E0F3CFCF5FF2CF9D3808F49A
:10033000BFCE816080936C00BBCE10926B00109298
:100340006A0010D0ACCE5CCEE199FECF8EBBE09AB5
:100350008DB30895E199FECF1CBA8EBB6DBBE29AB6
:10036000E19A0895E4E1F0E0AFE6B0E084918D9386
:10037000319680E0A837B807C9F7089599B5992351
:1003800011F061E033C095E052E070E40AB606FE79
:1003900025C012BE58BF882339F060FF29C0B99824
:1003A00090E69A95F1F7B998262F30E03595279584
:1003B000622F7ABFB19BFECF08B601FC1BC092B77B
:1003C0009034C0F496B79923E1F2811105C092B739
:1003D000953010F4622F6068415095E008B601FE38
:1003E00003C058BF915069F24111D0CF862F0895B4
:0E03F000B99AD6CF81E089BDC4CFF894FFCF73
:00000001FF
