:1000000009C082C181C180C17FC17EC17DC17CC167
:100010007BC17AC111241FBECFE9CDBF20E0A0E68D
:10002000B0E001C01D92A337B207E1F701D0BDC116
:10003000CF93DF93CDB7DD27C950CDBFF894C198DA
:10004000B998C298BA9AC098B89881E085BD1FBC8B
:1000500083E083BF19BEA89A85B7826085BF80ED13
:1000600080936A0087E080936B008BE480936C0040
:1000700086E480936D009FE790936E009FEF9093CE
:100080006F0095E09093700090E1909371008093E1
:10009000720090E080E0282FE199FECF2EBBE09A1D
:1000A0002DB3FC01EE59FF4F208301968830910556
:1000B00091F784B7877F84BF81B5886181BD81E670
:1000C00081BD80ED782E97E0892E2BE4922E36E4C8
:1000D000B32E4FE7A42E8E010F5F1F4FCC24C39485
:1000E000D12C8AB780768034E1F08036D1F080322E
:1000F00009F0DCC089E0F80111928A95E9F712BE97
:1001000088B7826088BF8AB780628ABF90E080E04B
:1001100020E00AB605FC69C008B601FEFACFC29815
:10012000E0CF12BE88B7826088BF8AB780648ABF7A
:10013000B19904C008B601FEFBCFD3CF82B780349B
:1001400080F212BE26E02A95F1F700C0B99A8FE13D
:1001500091E00197F1F700C000008AB780648ABF80
:10016000B99896E09A95F1F700C012BE88B7826000
:1001700088BFCBD08333B9F0853531F1C6D08E3B03
:1001800009F0AFCFF12CE12CF701E659FF4F808148
:10019000E4D08111A6CF9FEFE91AF90AE9E0EE1643
:1001A000F10491F79ECFF12CE12CF701EE59FF4FAE
:1001B0008081D3D0811195CFEFEFEE1AFE0AF8E0DF
:1001C000EF16F10491F78DCFF12CE12C9ED0F701C1
:1001D000EE59FF4F9081891384CF2FEFE21AF20A74
:1001E00088E0E816F10491F7C9CF32B712BE4AB7DA
:1001F00040624ABF3F3508F492CF213031F03538A4
:1002000008F486CFC29A21E084CFF801353608F48D
:100210003BC080E02E2F201B291750F4219182270C
:1002200028E03CE8869508F483272A95D9F7F2CF91
:10023000811125C030E020E0422F291700F59830C9
:1002400029F0993099F02F5F3F4FF6CFF801E20F78
:10025000F31F8081F901EE59FF4F8083E199FECFB2
:10026000E59A4EBB8DBBE29AE19AEDCFF801E20F21
:10027000F31F8081F901E659FF4F8083E4CF10928C
:100280006100109260004BCFE90FF11DA601082E0E
:1002900001C0440F0A94EAF73081342B30838F5F1A
:1002A000883008F436CF9F5F80E033CF01B407FE7B
:1002B00018CF81B5806881BD809160009091610008
:1002C00001968930F2E09F0728F4909361008093B3
:1002D000600007CF109261001092600070926A0077
:1002E00080926B0090926C00B0926D00A0926E00B4
:1002F0008FEF80936F0085E08093700080E18093A2
:100300007100B0927200EDCE7BCE30E020E080E054
:1003100041E050E028303105F9F008B601FE02C096
:1003200080E008950AB606FEF5CF12BE9AB7906433
:100330009ABFB19904C008B601FEFBCFF1CF92B7C6
:10034000953038F4BA01022E01C0660F0A94EAF71C
:10035000862B2F5F3F4FDECF089530E020E0482FFF
:1003600050E028303105E9F008B601FC1CC00AB69F
:1003700006FEF7CF12BECA01022E02C095958795E0
:100380000A94E2F780FF0BC0B99882B78530E8F392
:10039000B9989AB790649ABF2F5F3F4FE2CFB99A4E
:0E03A000F4CF80E0089581E00895F894FFCF37
:00000001FF
