:1000000009C0B4C1B3C1B2C1B1C1B0C1AFC1AEC109
:10001000ADC1ACC111241FBECFE9CDBF20E0A0E629
:10002000B0E001C01D92A537B207E1F701D0E2C1EF
:10003000CF93DF93CDB7DD27CA50CDBFF894C198D9
:10004000B998C298BA9AC098B89881E085BD1FBC8B
:1000500083E083BF19BEA89A85B7826085BF80ED13
:1000600080936C0087E080936D008BE480936E003A
:1000700086E480936F009FE7909370009FEF9093CA
:10008000710095E09093720090E1909373008093DB
:100090007400E4E6F0E080E0E199FECF8EBBE09AE8
:1000A0009DB391938F5F8830B9F784B7877F84BF02
:1000B00081B5886181BD81E681BD6CE6A62E60E0D8
:1000C000B62ECE0101967C0155245A9466246A947A
:1000D00070ED772EE7E08E2EFBE49F2E0AB606FE2B
:1000E0000CC012BE88B7826088BF8AB780648ABF9E
:1000F000B1994EC008B601FEFBCF0AB605FE1BC083
:100100008AB780628ABF08B601FEC0C088B7826025
:1001100088BF6092630012BE80916200880F809356
:1001200062009091630021EA290F253208F0B2C0E5
:1001300081608093620001B407FED0CF81B58068F2
:1001400081BD809160009091610001969093610063
:1001500080936000833C914008F2109261001092FD
:10016000600070926C0080926D0090926E0086E448
:1001700080936F009FE7909370005092710095E01C
:100180009093720090E19093730080937400A6CFD7
:1001900082B7803408F4B1CF12BE96E09A95F1F799
:1001A00000C0B99AEFE1F1E03197F1F700C000002B
:1001B0008AB780648ABFB998F6E0FA95F1F700C073
:1001C00012BE88B7826088BF88E0D1D0853589F0BB
:1001D000803F71F18333C9F404E610E068E0F80170
:1001E00081918F01E6D0811188CFA016B106B1F7B9
:1001F00084CF04E610E088E0BAD0F80191918F0135
:1002000089137BCFAE16BF06B1F788E0B0D08E3B26
:1002100009F073CF0CE610E068E0F80181918F01DE
:10022000C8D081116ACFF0E005371F07A9F765CF65
:10023000D12CC12CF60153E0F595E7955A95E1F7DD
:10024000EC59FF4F008110E08C2D877002C015958E
:1002500007958A95E2F761E0802F8170AAD0C801E6
:100260008095909561E08170A4D081E080D001708C
:1002700091E0811101C090E009133FCFFFEFCF1A49
:10028000DF0A20E4C216D104A9F637CF82B78093E3
:10029000630041CF9458963208F04DCF8E3F09F05D
:1002A0004ACFC29AF70130E0108228E00AB605FC76
:1002B00005C008B601FEFACFC2983DCF82B7809341
:1002C000630012BE8AB780628ABF808190E09595F4
:1002D000879580834091630057EC540F563248F461
:1002E00080688083215011F73F5F31963A30E1F604
:1002F000E3CF4536B8F3F70180E09E2F9E199317A0
:1003000050F49191892798E02CE8869508F482278B
:100310009A95D9F7F2CF811124C090E080E0482F60
:100320008317F8F4383021F0393091F00196F7CF87
:10033000F701E80FF91F2081FC01EC59FF4F2083E2
:10034000E199FECFE59A4EBB2DBBE29AE19AEECF42
:10035000F701E80FF91F2081FC01E459FF4F2083CA
:10036000E5CF1092610010926000A6CF49CE40E028
:1003700090E0841721F008B601FE03C090E0892FB9
:1003800008950AB606FEF5CF12BE2AB720642ABF2A
:10039000B19904C008B601FEFBCFF0CF292F30E0A1
:1003A00035952795922F52B7553008F490684F5FD6
:1003B000E0CF90E09617D1F008B601FC19C00AB65C
:1003C00006FEF8CF12BE282F30E080FF0DC0B9988E
:1003D00082B78530E8F3B9988AB780648ABF3595CB
:1003E0002795822F9F5FE6CFB99AF2CF80E00895DC
:0803F00081E00895F894FFCFAD
:00000001FF
