:100000000EC088C187C186C185C184C183C182C138
:1000100081C180C1D0074B467FFF051046001124E7
:100020001FBECFE9CDBF20E0A0E6B0E001C01D9229
:10003000A837B207E1F701D0DBC1F894C198B998AD
:10004000C298BA9AC098B898C39ABB981FBC84E06B
:1000500083BF19BEA89A85B7826085BFB39B04C0D1
:100060008FE059D180936E0080916E00811101C0A4
:10007000C29A5FD184B7877F84BF81B5886181BD13
:1000800081E681BDA8E7EA2EA0E0FA2ED2E0CC24DA
:10009000CA94BB24BA94F3E0AF2E74E0972EE0E24A
:1000A000DE2E0AB606FC03C089B58823A9F089B5FF
:1000B00086BF19BCA3BE48E060E080E046D18E3B1D
:1000C00009F48BC0E0F5833309F442C0853509F4A7
:1000D0004CC093BE12BED8BF0AB605FE17C008B604
:1000E00001FE89C0D8BFC0926D0012BEDABEB099C1
:1000F0000DC090916D009D3848F080916C00880F84
:10010000953C08F07CC0816080936C0001B407FED0
:10011000C8CF81B5806881BD80916A0090916B00E5
:10012000019690936B0080936A00823E910508F4DB
:10013000B4CF10926B0010926A00FBD0ACCF803F1E
:1001400011F18F3F19F08C3C21F6B5CF19BCB3CF1C
:10015000C0E08C2FE0D048E0682F81E0F6D081111C
:10016000B8CFCF5FC830A9F7B4CFC0E048E060E0B7
:1001700080E0EBD0182F8C2FCED01813AACFCF5FF2
:10018000C830A1F798CF812C882DC5D0C82F68E042
:10019000762E8C2F8170682E41E0682F81E0D5D0BB
:1001A0000C2F10E06C2F6095617041E081E0CDD0A4
:1001B00041E060E080E0C9D091E0811101C090E0B1
:1001C000961187CF15950795C02F7A947110E1CFBE
:1001D0008394E8E08E12D8CF7CCF0FE610E0F801D0
:1001E00061918F0148E081E0B0D0811172CFE016BB
:1001F000F106A9F760CF82B780936D0076CF8E3F6E
:1002000009F082CF10926C00812CC0E0EC2FF0E05E
:10021000E05AFF4F108230E00AB605FC03C008B672
:1002200001FEFACF08B601FE30C0D8BFB0926D0013
:1002300012BEDABEB0990EC020916D002E3150F082
:100240003F5F808190E0959587958083253508F5FF
:1002500080688083383001F781105AC08091600037
:1002600090916E00891709F450C091110CC08093D1
:100270006E0082E0882EC29ACA3041F680916E00EC
:10028000882309F443CFC29841CF82B780936D0091
:10029000CFCF2D38F8F2E0E6F0E020E080E02C1738
:1002A00059F09191892798E03CE8869508F48327D6
:1002B0009A95D9F72F5FF3CF81111BC010E000E0B2
:1002C0000C17B8F4C83029F0C93051F00F5F1F4F38
:1002D000F7CFF801E05AFF4F6081802F22D0F6CF90
:1002E000F801E05AFF4F8081F801E159FF4F808308
:1002F000EDCF10926B0010926A00F2E08F12BECF29
:1003000060916E008FE00DD0B9CF88248394B3CF75
:10031000CF5FB2CF75CEE199FECF8EBBE09A8DB3A1
:100320000895E199FECF1CBA8EBB6DBBE29AE19AAB
:100330000895E4E1F0E0AFE6B0E084918D9331966A
:1003400080E0A837B807C9F7089595E052E070E457
:100350000AB606FE43C012BE58BF882339F060FFBC
:100360000DC0B99890E69A95F1F7B9987ABFB1990E
:1003700007C008B601FEFBCF61E038C0B99AF2CFE2
:1003800092B79034D8F086E08A95F1F700C0B99A18
:100390008FE191E00197F1F700C00000B99896E075
:1003A0009A95F1F700C080E48ABF86B7882311F0E0
:1003B00081E089BD81E086BF6FEF18C096B79923B1
:1003C000D9F2262F30E035952795622F811104C090
:1003D00092B7953008F46068415095E008B601FE88
:1003E00003C058BF915041F24111B2CF862F0895FA
:0403F000F894FFCFAF
:00000001FF
