:1000000009C08FC18EC18DC18CC18BC18AC189C10C
:1000100088C187C111241FBECFE9CDBF20E0A0E673
:10002000B0E001C01D92A537B207E1F701D0CAC107
:10003000CF93DF93CDB7DD27C950CDBFF894C198DA
:10004000B998C298BA9AC098B89881E085BD1FBC8B
:1000500083E083BF19BEA89A85B7826085BF80ED13
:1000600080936C0087E080936D008BE480936E003A
:1000700086E480936F009FE7909370009FEF9093CA
:10008000710095E09093720090E1909373008093DB
:100090007400E4E6F0E080E0E199FECF8EBBE09AE8
:1000A0009DB391938F5F8830B9F784B7877F84BF02
:1000B00081B5886181BD81E681BD3CE6C32E30E01B
:1000C000D32E45E7A42E40E0B42E59E0752E8E01C4
:1000D0000F5F1F4F88248394912C66246A940AB67C
:1000E00006FE0CC012BE88B7826088BF8AB78064E3
:1000F0008ABFB19952C008B601FEFBCF0AB605FE11
:100100001BC08AB780628ABF08B601FE97C088B755
:10011000826088BF6092630012BE80916200880F87
:10012000809362009091630021EA290F253208F044
:1001300089C081608093620001B407FED0CF81B591
:10014000806881BD809160009091610001969093DC
:100150006100809360008930924008F21092610043
:100160001092600080ED80936C0087E080936D00BA
:100170008BE480936E0086E480936F009FE79093FA
:1001800070009FEF9093710095E09093720090E162
:100190009093730080937400A0CF82B7803408F4EA
:1001A000ADCF12BE26E02A95F1F700C0B99A8FE1D3
:1001B00091E00197F1F700C000008AB780648ABF20
:1001C000B99896E09A95F1F700C012BE88B78260A0
:1001D00088BFA8D08333A1F0853501F1A3D08E3B31
:1001E00009F08CCF8CE6E82E80E0F82EF7018191A3
:1001F0007F01C0D0811182CFAE14BF04B9F77ECF8A
:1002000024E6E22E20E0F22EF70181917F01B2D0A8
:10021000811174CFCE14DF04B9F770CF94E6E92EC4
:1002200090E0F92E7FD0F70191917F01891366CF7D
:10023000FCE6EF16F0E0FF06A9F7D0CF82B7809377
:1002400063006ACF9458963208F076CF8E3F09F05B
:1002500073CFC29AF801272D11922A95E9F790E001
:1002600080E00AB605FC05C008B601FEFACFC298C8
:1002700063CF32B712BE2AB720622ABF27EC230F02
:10028000263288F4F801E90FF11D2081A401082E1F
:1002900001C0440F0A94EAF7242B20838F5F883033
:1002A00000F39F5FDDCF3536C8F3F80180E02E2FD5
:1002B000201B291750F42191822728E03CE88695DD
:1002C00008F483272A95D9F7F2CF811125C030E0B1
:1002D00020E0422F291700F5983029F0993099F045
:1002E0002F5F3F4FF6CFF801E20FF31F8081F90136
:1002F000EC59FF4F8083E199FECFE59A4EBB8DBB51
:10030000E29AE19AEDCFF801E20FF31F8081F90143
:10031000E459FF4F8083E4CF109261001092600097
:10032000A6CF6ECE30E020E080E041E050E0283003
:100330003105F9F008B601FE02C080E008950AB662
:1003400006FEF5CF12BE9AB790649ABFB19904C069
:1003500008B601FEFBCFF1CF92B7953038F4BA0161
:10036000022E01C0660F0A94EAF7862B2F5F3F4FDB
:10037000DECF089530E020E0482F50E028303105EE
:10038000E9F008B601FC1CC00AB606FEF7CF12BEA3
:10039000CA01022E02C0959587950A94E2F780FF64
:1003A0000BC0B99882B78530E8F3B9989AB79064D2
:1003B0009ABF2F5F3F4FE2CFB99AF4CF80E0089504
:0803C00081E00895F894FFCFDD
:00000001FF
