:1000000009C087C186C185C184C183C182C181C144
:1000100080C17FC111241FBECFE9CDBF20E0A0E683
:10002000B0E001C01D92A537B207E1F701D0B5C11C
:10003000CF93DF93CDB7DD27CA50CDBFF894C198D9
:10004000B998C298BA9AC098B89881E085BD1FBC8B
:1000500083E083BF19BEA89A85B7826085BF80ED13
:1000600080936C0087E080936D008BE480936E003A
:1000700086E480936F009FE7909370009FEF9093CA
:10008000710095E09093720090E1909373008093DB
:100090007400E4E6F0E080E0E199FECF8EBBE09AE8
:1000A0009DB391938F5F8830B9F784B7877F84BF02
:1000B00081B5886181BD81E681BDECE6EE2EE0E090
:1000C000FE2EF5E7CF2EF0E0DF2E55245A9466245D
:1000D0006A94A0ED7A2EB7E08B2E1BE4912E06E4F5
:1000E000B02E8FE7A82E0AB606FE0CC012BE88B747
:1000F000826088BF8AB780648ABFB1994CC008B655
:1001000001FEFBCF0AB605FE1BC08AB780628ABF1C
:1001100008B601FE89C088B7826088BF609263001C
:1001200012BE80916200880F8093620090916300FC
:1001300021EA290F253208F07BC08160809362009C
:1001400001B407FED0CF81B5806881BD8091600089
:100150009091610001969093610080936000833CD0
:10016000914008F2109261001092600070926C0051
:1001700080926D0090926E00B0926F00A09270001D
:100180005092710085E08093720080E1809373004B
:10019000B0927400A8CF82B7803408F4B3CF12BEF7
:1001A00026E02A95F1F700C0B99A8FE191E0019716
:1001B000F1F700C000008AB780648ABFB99896E062
:1001C0009A95F1F700C012BE88B7826088BFC3D08D
:1001D000833391F08535E1F0BED08E3B09F092CFAC
:1001E0000CE610E0F80181918F0194D081118ACF43
:1001F000C016D106B9F786CF04E610E0F801819168
:100200008F0188D081117ECFE016F106B9F77ACF41
:1002100004E610E0A0D0F80191918F01891372CF0C
:10022000EE16FF06B9F7D8CF82B78093630078CF78
:100230009458963208F084CF8E3F09F081CFC29A4D
:10024000DE011196FD013A2F6AE06A0F2E2F2A1B5C
:10025000108250E00AB605FC05C008B601FEFACFD0
:10026000C2986ECF82B78093630012BE8AB7806255
:100270008ABFB09910C040916300483160F080811E
:1002800090E09595879580835F5F78EC740F773267
:1002900040F4806880835830E9F631966E1701F398
:1002A000D5CF4F35C0F3FD0180E09E2F931B9217F1
:1002B00050F49191892798E04CE8869508F48427BA
:1002C0009A95D9F7F2CF81111FC090E080E0482FB6
:1002D0008217D0F4283029F0293081F00196119648
:1002E000F6CF3C91FC01EC59FF4F3083E199FECFF2
:1002F000E59A4EBB3DBBE29AE19AF0CF3C91FC01FE
:10030000E459FF4F3083EACF1092610010926000F1
:10031000A7CF76CE90E09830D1F008B601FC19C096
:100320000AB606FEF8CF12BE282F30E080FF0DC0BF
:10033000B99882B78530E8F3B9988AB780648ABFE4
:1003400035952795822F9F5FE6CFB99AF2CF80E04F
:10035000089581E0089590E080E09830E9F008B6D3
:1003600001FE02C080E008950AB606FEF6CF12BE76
:100370002AB720642ABFB19904C008B601FEFBCF9A
:10038000F1CF282F30E035952795822F42B74530A1
:0E03900008F480689F5FE1CF0895F894FFCFD6
:00000001FF
