:100000000EC09CC19BC19AC199C198C197C196C1AC
:1000100095C194C1D0074B467FFF051046001124BF
:100020001FBECFE9CDBF20E0A0E6B0E001C01D9229
:10003000A837B207E1F701D0DBC1F89488E088BBAC
:1000400084E087BB1FBC83BF19BEA89A85B78260B6
:1000500085BFB39B04C08FE072D180936E00809106
:100060006E00811101C0C29A78D184B7877F84BFA6
:1000700081B5886181BD81E681BD73E0D72EE4E062
:10008000CE2EF2E0FF2EBB24B394A0E2EA2EAA24E7
:10009000AA9499249A940AB606FC1AC086B78111CC
:1000A00017C00AB605FC98C001B407FEF4CF81B5AD
:1000B000806881BD80916A0090916B000196823EBC
:1000C000910508F035C190936B0080936A00E3CFEF
:1000D000D3BE48E060E080E04CD18E3B09F46AC0BA
:1000E000F0F4833309F44BC0853509F455C089B564
:1000F000882309F46CC0B6BE19BC80E38A95F1F779
:10010000B99A8FE191E00197F1F700C00000B9982A
:1001100096E09A95F1F700C080E48ABFBCCF8C3C92
:10012000C1F200E0803F19F7802F09D1182F68E055
:10013000862E812F8170782E41E0682F81E019D1C1
:100140008111D5CFC12FD0E0612F6095617041E062
:1001500081E00FD18111CBCF41E060E00AD191E085
:10016000811101C090E09711C2CFD595C7951C2F82
:100170008A948110DECF0F5F0830B1F6B8CFC0E0AF
:100180008C2FDDD048E0682F81E0F3D08111AFCF14
:10019000CF5FC830A9F7ABCFC0E048E060E080E0B7
:1001A000E8D0D82F8C2FCBD0D813A1CFCF5FC830B9
:1001B000A1F78FCFCFE6D0E0699148E081E0D9D0B8
:1001C000811195CF90E0C837D907B1F782CF16BE1D
:1001D000C3BE12BEF8BE5FCF08B601FE41C0F8BE76
:1001E000A0926D0012BEEABEB0995ECF90916D00F4
:1001F0009E3108F459CF80916C00880F80936C0079
:10020000953C08F48EC08E3F09F084C0D0E0C0E079
:10021000EC2FF0E0E05AFF4F108230E0383008F069
:1002200064C00AB606FC72C00AB605FEF7CF08B66F
:1002300001FE1AC0F8BE90926D0012BEEABEB099DF
:10024000EDCF20916D002E3148F33F5F808190E02B
:10025000959587958083253558F480688083DECF17
:1002600082B780936D00BECF82B780936D00E5CFDB
:100270002D38A0F2E0E6F0E020E080E02C1759F005
:100280009191892798E03CE8869508F483279A9510
:10029000D9F72F5FF3CF81111BC010E000E00C17DE
:1002A000B8F4C83029F0C93051F00F5F1F4FF7CFB5
:1002B000F801E05AFF4F6081802F47D0F6CFF80158
:1002C000E05AFF4F8081F801E159FF4F8083EDCF65
:1002D00060916E00DD23D1F010926B0010926A00E5
:1002E000D230A1F48FE031D011C0D11118C080916B
:1002F000600090916E00891781F091110AC080937F
:100300006E00D2E0C29ACA3009F082CF80916E00AE
:100310008111C29810926C00C7CED1E0F3CFCF5FAD
:10032000F2CF9D3808F4C0CE816080936C00BCCEC3
:1003300010926B0010926A0010D0ADCE61CEE199A0
:10034000FECF8EBBE09A8DB30895E199FECF1CBA23
:100350008EBB6DBBE29AE19A0895E4E1F0E0AFE66E
:10036000B0E084918D93319680E0A837B807C9F743
:10037000089599B5992311F061E038C095E052E0F5
:1003800070E40AB606FE2AC012BE58BF882339F0B0
:1003900060FF0CC0B99890E69A95F1F7B9987ABFCA
:1003A000B19906C008B601FEFBCFE6CFB99AF3CFEC
:1003B00092B7903418F081E089BDDECF96B79923CB
:1003C000D9F2262F30E035952795622F811104C090
:1003D00092B7953008F46068415095E008B601FE88
:1003E00003C058BF915041F24111CBCF862F0895E1
:0403F000F894FFCFAF
:00000001FF
